S00E000063616E6370702E73726563A1
S11300000C9447000C9400080C946F000C946F003F
S11300100C943D080C946F000C946F000C946F00CA
S11300200C946F000C946F000C9481010C946F007D
S11300300C946F000C94E7080C946F000C946F0000
S11300400C946F000C946F000C946F000C946F0070
S11300500C946F000C946F000C946F000C946F0060
S11300600C946F000C946F004A034E0311031403A5
S113007017031B031F032203260329032C032F0347
S1130080320336033A033E0341034403930211242B
S11300901FBECFEFD8E0DEBFCDBF11E0A0E0B1E0DE
S11300A0EEEDF8E102C005900D92A83EB107D9F734
S11300B026E0A8EEB1E001C01D92A43AB207E1F730
S11300C010E0CEE8D0E004C02297FE010E9484092B
S11300D0CC38D107C9F70E94D2010C946D0C0C9452
S11300E00000FC012281338120FD12C0A285B3856A
S11300F0A80FB91F1C968C911C9790E09595879535
S1130100672B11F040E801C040E0842B1C968C93CF
S1130110C90101969383828324E0959587952A9556
S1130120E1F793878287809758F0178216821386A7
S11301301286158214821382128211861086089503
S113014082E090E0918780870895CF93DF93EC015C
S113015088859985039759F1E881F9810190F081A7
S1130160E02DCE0109958F3F2FEF920719F00197EB
S113017061F01DC01F821E821B861A861D821C828E
S11301801B821A821986188612C08C819D81892B44
S113019051F0E881F9810280F381E02D60E070E0A4
S11301A0CE010995F2CF83E090E09987888781E0BA
S11301B0288539852330310509F080E0DF91CF911E
S11301C00895DC0116962D913C91179726271796D2
S11301D03C932E931697ED91FC910280F381E02DD0
S11301E0B9010994CF93DF93EC01CB01885C9109A9
S11301F0883E9340A0F521E06C3B72400CF420E073
S11302008885998581309105D9F08230910579F0FE
S1130210892BE1F48E819F81222321F001969F8313
S11302208E8314C08097DCF01F821E8202C02111CD
S113023005C081E090E09987888708C061E003C029
S113024021110DC060E0CE010E94E10081E090E048
S11302502A813B81203A310521F080E002C08FEFF2
S11302609FEFDF91CF9108952A9A229A8FE39CE918
S11302700197F1F700C000002A985C98549A5F9A9D
S1130280579A39983A983B983C98419A429A439A9B
S1130290449A089583E291E090932902809328027E
S11302A080912A02807E846080932A028BEA809364
S11302B02B028DEC80932C0240E460EE8FE00E94D0
S11302C0DC0288E292E00E9430048FE39CE901970B
S11302D0F1F700C000000E94B303882351F088E2C4
S11302E092E00E94BA03882311F081E003C084E005
S11302F001C086E00E94670640E060EE8FE00C9447
S1130300DC021F920F920FB60F9211242F933F938A
S11303104F935F936F937F938F939F93AF93BF9309
S1130320EF93FF9320918600309187008091E8013C
S11303309091E901821B930B9C01285C3109283EB2
S11303403340B8F4E0916902F0916A02EE0FFF1FA6
S1130350E559FD4F918380838091690290916A02EF
S1130360019660E072E00E946E0990936A028093A5
S1130370690280918400909185009093E9018093B3
S1130380E801FF91EF91BF91AF919F918F917F9180
S11303906F915F914F913F912F910F900FBE0F90EE
S11303A01F901895A89514BE809160008861809371
S11303B06000109260000E9434010E94810680E077
S11303C00E94B80683E390E00E94BE068DE091E0AF
S11303D00E94D0060E947C03811106C08DE191E049
S11303E00E94D00686E001C081E00E9467068FE784
S11303F08093EB0181E18093EA010E94C30580911F
S113040039021F928F93809138021F928F938091AB
S113041037021F928F93809136021F928F9380919F
S113042035021F928F93809134021F928F9384E33D
S113043091E09F938F938CEE91E09F938F930E9412
S11304409C0981E08093340282E08093350283E04A
S11304508093360284E0809337028CEE91E00E9410
S1130460D0060E944A012FEF83EC99E0215080408E
S11304709040E1F700C0000080E894E00E94330659
S113048080E591E00E94D0068EE180936C0082E0CA
S11304908093680029E288E190E00FB6F894A8956B
S11304A0809360000FBE2093600078948DB79EB750
S11304B040960FB6F8949EBF0FBE8DBF00E012E0C9
S11304C02091690230916A028091670290916802DA
S11304D028173907A9F3E0916702F0916802EE0F3B
S11304E0FF1FE559FD4FC081D18180916702909132
S11304F068020196B8010E946E0990936802809385
S113050067022097E9F2BE018BE392E00E94A50006
S1130510882329F0BE018BE392E00E94A500CE015E
S11305200E943D05CDCF10924202109241021092DA
S11305304602109245021092400210923F0210921D
S11305403E0210923D02109244021092430288E649
S113055091E090933C0280933B0208958EBD0DB4CC
S113056007FEFDCF8EB508951F93CF93DF931F929F
S1130570CDB7DEB7182F299882E069830E94AE02B6
S1130580812F0E94AE026981862F0E94AE02299AB1
S11305900F90DF91CF911F910895CF93C82F299881
S11305A083E00E94AE028C2F0E94AE028FEF0E9465
S11305B0AE02299ACF9108951F93CF93DF9300D071
S11305C0CDB7DEB7182F299885E04A8369830E9446
S11305D0AE02812F0E94AE026981862F0E94AE0274
S11305E04A81842F0E94AE02299A0F900F90DF91C6
S11305F0CF911F91089529980E94AE028FEF0E9417
S1130600AE02299A08950F931F93CF93DF9390E03E
S1130610FC013197E231F105D8F5EC5CFF4F0C9405
S11306208209C7E8DFEF05C0C7E0DAEB02C0C5E81E
S1130630D1EF1FE036C0C7E0DEEB19E032C0C7E8F7
S1130640DFEF02C0C7E8DAEF17E02BC0C7E8DFEF3F
S11306500BC0C7E0DEEB08C0C7E0DDEA05C0C7E8B1
S1130660DAEF02C0C6E8D0EF13E01BC0C7E8DAEF48
S113067011E017C0C5E8D1EF11E413C0C6E8D0EF0C
S113068005C0C4E0D0EA02C0C2E8D0ED10E009C061
S113069080E02DC0C7E8DFEF1FE303C0C7E8DFEF4A
S11306A01FE1612F8AE20E94B4026D2F89E20E9449
S11306B0B4026C2F88E20E94B4028AE20E94CD0246
S11306C001E0811301C000E089E20E94CD0291E0C3
S11306D08D1301C090E0092388E20E94CD0291E0CD
S11306E08C1301C090E0802F892391E08927DF914A
S11306F0CF911F910F910895299A219A2D982B98A3
S11307002C98259A239A249852985A9A81E58CBD5C
S11307101DBC299880EC0E94AE02299A85E38A9533
S1130720F1F700008EE00E9403038823D1F063E018
S11307308BE20E94B40260E08CE00E94B40260E0AC
S11307408DE00E94B40260E680E60E94B40260E696
S113075080E70E94B40260E08FE00E94B40281E06E
S1130760089580E0089589B182FB882780F991E09B
S113077089270895DF92EF92FF920F931F93CF93EF
S1130780DF931F92CDB7DEB78C0180EB0E94FB0292
S11307908983898186FD05C0898187FF57C084E9E3
S11307A001C080E929980E94AE028FEF0E94AE0238
S11307B028E0829FC0011124F801918380838FEF88
S11307C00E94AE0290E025E0959587952A95E1F781
S11307D0F80120813181282B392B318320838FEF3D
S11307E00E94AE028FEF0E94AE028FEF0E94AE0213
S11307F08F70D82E880FF8019281917E982B928366
S1130800298123FB222720F9219520FB90F992834B
S1130810E12CF12CED1458F48FEF0E94AE02F80194
S1130820EE0DFF1D8383FFEFEF1AFF0AF3CF299A22
S1130830898140E086FF02C061E001C062E08CE291
S11308400E94DC02898187708F5F01C080E00F9075
S1130850DF91CF911F910F91FF90EF90DF9008955A
S1130860CF92DF92EF92FF920F931F93CF93DF9378
S11308701F92CDB7DEB78C0180EA0E94FB02898308
S1130880898182FF09C0898184FF08C0898186FD2E
S113089053C054E0D52E04C0D12C02C042E0D42E63
S11308A029988D2D80640E94AE02F8018081918187
S11308B033E0969587953A95E1F70E94AE02F801E8
S11308C080818295880F807E0E94AE0280E00E9423
S11308D0AE0280E00E94AE02F8018281C82EC69466
S11308E0FC2DFF70CF2E80FF05C08F2F80640E94E7
S11308F0AE0211C08F2F0E94AE02E12CF12CEC1439
S113090050F4F801EE0DFF1D83810E94AE028FEFBB
S1130910E81AF80AF4CF299A95E09A95F1F70000BD
S11309202998D11002C0DD24D3948D2D80680E94B3
S1130930AE02299A8D2D01C080E00F90DF91CF91F6
S11309401F910F91FF90EF90DF90CF900895109238
S113095091061092900610928F06109292061092B1
S1130960700610926F0610926B0610926C0610922D
S11309706E0610926D068FEF80937106089538E02D
S113098020E080FD2095959587953150D1F78227F9
S11309908170089520916C0630E02F5F3F4FE2E7AD
S11309A0F6E080E0AF0141575640241735071CF0AC
S11309B091918927F7CF0895CF93DF9320919006E3
S11309C0309191062F5F3F4F30939106209390060C
S11309D020916D0630916E0635952795882311F088
S11309E0316001C0332730936E0620936D068091E9
S11309F06B068F5F80936B068930D9F5C0916D06C5
S1130A00D0916E06CE010E94BF04882319F00E9483
S1130A10A7042FC0DD27D0936E06C0936D062091E6
S1130A206F0630917006F901EF58F94FC0831092A8
S1130A306B062230310541F48091730690E0959560
S1130A4087958F7180936C0680916C0690E0029676
S1130A502817390721F4DF91CF910C94CA048091AF
S1130A6071068F39A1F62F5F3F4F309370062093A4
S1130A706F0681E0DF91CF9108959C0121593140A7
S1130A802F313340E0F48C3B924044F081E00E94EB
S1130A90DC048823C1F01092920613C08091920660
S1130AA0811104C081E0809392060BC010929206DB
S1130AB080E00E94DC0491E0882331F002C00E94AF
S1130AC0A70490E001C091E0892F089545983D9ACC
S1130AD08FE797E00197F1F700C000003D98EFEE33
S1130AE0F0E03197F1F700C0000086B1EFE8F6E0DE
S1130AF03197F1F700C000008072089545983D9A3F
S1130B0095E09A95F1F7000081113D988FEE90E001
S1130B100197F1F700C000003D98089545983D9A6B
S1130B2085E08A95F1F700003D989AE49A95F1F7EB
S1130B3000C086B190EF9A95F1F785FB882780F97C
S1130B400895CF93DF93D9E0C0E0D15049F00E94DB
S1130B508E0520E8829FC0011124C695C82BF5CFCD
S1130B608C2FDF91CF910895CF93DF93D82FC9E0D5
S1130B70C15031F08D2F81700E947E05D695F8CF3B
S1130B80DF91CF910895CF93DF930E94660583E3AD
S1130B900E94B405C3E3D2E00E94A105899382E0D8
S1130BA0CB33D807C9F780913302883281F5E3E368
S1130BB0F2E020E05CE8419138E0642F6227822F64
S1130BC090E095958795282F60FF02C0252F282750
S1130BD04695315091F782E0EA33F80761F7809146
S1130BE03A02281314C08091350290913402892B63
S1130BF090913602892B90913702892B909138027B
S1130C00892B90913902892B11F081E001C08FEF7B
S1130C10DF91CF910895FC0184818823E1F0228142
S1130C2033812115310599F08091A2069091A30694
S1130C30408151814817590731F0215031093383DC
S1130C4022839183808382819381892B11F414827E
S1130C5002C080E0089581E008954F9B02C05F9830
S1130C6008955F9A0895CF93DF93EC010E942D06B7
S1130C7029B18091EB01C82BD0932902C09328029B
S1130C80EAE2F2E08081807E8C60808388B190E02B
S1130C909595879580932B0224FB882780F9809370
S1130CA02C028091340280932D028091350280932E
S1130CB02E028091360280932F0280913702809316
S1130CC0300288E292E0DF91CF910C94300490E0FE
S1130CD09817B1F05F9A2FEF31EE44E02150304085
S1130CE04040E1F700C000005F982FEF31EE44E090
S1130CF0215030404040E1F700C000009F5FE8CF42
S1130D0008951092800085E08093810021E0209373
S1130D106F0085EE99EF9093850080938400109284
S1130D20A3061092A2062093A10680E797E1909370
S1130D30A00680939F0610929E0610929D06209313
S1130D409C068CE390E090939B0680939A06109205
S1130D50990610929806209397068EE190E090935E
S1130D609606809395061092940610929306089521
S1130D70811102C0E89A0895E99A08959093C500F4
S1130D808093C40088E18093C1008EE08093C20008
S1130D9008959091C00095FFFCCF8093C6000895FC
S1130DA0CF93DF93EC018991882319F00E94C9063F
S1130DB0FACFDF91CF9108958091EA01813111F545
S1130DC0ECE2F2E0A4E3B2E091918D91981719F06E
S1130DD08CE691E015C082E0E033F807A9F7809132
S1130DE028028F778093EB0180912B0280FF02C051
S1130DF05C9A01C05C9885E08093EA018AE791E0FF
S1130E000C94D0060895EF92FF920F931F93CF9303
S1130E10DF938091EB011F928F93809129028F932E
S1130E20809128028F938BE891E09F938F938CEEAF
S1130E3091E09F938F930E949C098CEE91E00E9415
S1130E40D0068DB79EB708960FB6F8949EBF0FBE16
S1130E508DBF809128029091290280789770811526
S1130E60954021F40E942D060E94DC068091280200
S1130E70909129026091EB01AC014F775527262F01
S1130E8030E042175307B9F50E942D0680912802DD
S1130E9090912902807897708115924009F068C07A
S1130EA0CBE2D2E043E9E42E41E0F42E0CEE11E073
S1130EB089911F928F93FF92EF921F930F930E9439
S1130EC09C098CEE91E00E94D0060F900F900F9039
S1130ED00F900F900F9082E0C333D80749F787E94A
S1130EE091E00E94D00680912B0280FF02C05C9AA0
S1130EF03FC05C983DC040912C0231E0411130E08C
S1130F0021E0461320E0232B99F1892B89F50E94D7
S1130F102D068EE991E00E94D00680912B02803844
S1130F2039F120F481508230C8F422C0813851F064
S1130F308238A1F4DF91CF911F910F91FF90EF9030
S1130F400C947C0328E088E190E00FB6F894A8950F
S1130F50809360000FBE20936000FFCF8AEA91E087
S1130F60DF91CF911F910F91FF90EF900C94D006D9
S1130F70DF91CF911F910F91FF90EF900895CF9340
S1130F80C82F40E060E88CE20E94DC0240E060E2AE
S1130F908CE20E94DC022091EB0130E02068356095
S1130FA03093290220932802EAE2F2E09081907EB5
S1130FB094609083C0932B028DE20E94CD028093B3
S1130FC02C0288E292E00E94300440E060E88CE267
S1130FD00E94DC0240E060E28CE20E94DC0285EBCD
S1130FE091E00E94D0060E947C032FE783E79CE0F7
S1130FF0215080409040E1F700C00000CF91089557
S11310001F920F920FB60F9211242F933F934F9379
S11310105F936F937F938F939F93AF93BF93CF937C
S1131020EF93FF938CE20E94CD02C82F87FF03C089
S113103081E00E94BF07C5FF03C082E00E94BF0792
S11310400E94B303882339F088E292E00E94BA0335
S113105081110E940307FF91EF91CF91BF91AF914E
S11310609F918F917F916F915F914F913F912F91BC
S11310700F900FBE0F901F9018951F920F920FB6EE
S11310800F9211242F933F934F935F936F937F930A
S11310908F939F93AF93BF93EF93FF9386B14C9934
S11310A002C081FD5C9A86B14C9B02C081FF5C98B2
S11310B08AEC91E00E94D00680E891E00E94330619
S11310C0FF91EF91BF91AF919F918F917F916F911C
S11310D05F914F913F912F910F900FBE0F901F90F2
S11310E0189580E480937C0084E880937A0081E002
S11310F080937E008FE39CE90197F1F700C0000024
S113110080917A00806480937A0080917A0086FDD1
S1131110FCCF809178009091790010927A009370BE
S113112008950F931F93CF93DF93082F8091EA01C3
S1131130813109F447C00E947108182FD92F0E94E9
S11311402D06C9B1C295C1701F92CF9328ED31E02D
S11311503F932F932CEE31E03F932F930E949C09F1
S11311608CEE91E00E94D0062091EB0130E03760D4
S1131170309329022093280220912A02207E2C6099
S113118020932A0200932B02C0932C0210932D0269
S1131190D0932E028CE10E94CD0280932F028DE128
S11311A00E94CD02809330020F900F900F900F9009
S11311B00F900F9088E292E0DF91CF911F910F91F1
S11311C00C943004DF91CF911F910F9108951F92D9
S11311D00F920FB60F9211242F933F934F935F9367
S11311E06F937F938F939F93AF93BF93EF93FF93EB
S11311F085EE99EF90938500809384008091A206F8
S11312009091A30601969093A3068093A2068DE97C
S113121096E00E940B068823A9F081E08093A10642
S113122080E797E19093A00680939F068091A206A1
S11312309091A30690939E0680939D068091EA0167
S11312400E94910888E996E00E940B06882391F099
S113125081E080939C068CE390E090939B068093BE
S11312609A068091A2069091A30690939906809382
S11312709806A89583E996E00E940B068823E9F076
S11312808091EA018131C9F480E894E00E94330638
S113129081E0809397068EE190E090939606809388
S11312A095068091A2069091A3069093940680934C
S11312B0930680E591E00E94D006FF91EF91BF91E3
S11312C0AF919F918F917F916F915F914F913F91DA
S11312D02F910F900FBE0F901F90189597FB072E1C
S11312E016F4009407D077FD09D00E94880907FC02
S11312F005D03EF4909581959F4F08957095619522
S11313007F4F0895EE0FFF1F0590F491E02D09948F
S1131310AA1BBB1B51E107C0AA1FBB1FA617B70717
S113132010F0A61BB70B881F991F5A95A9F7809533
S11313309095BC01CD010895AEE0B0E0E2EAF9E099
S11313400C94440C0D891E8986E08C831A830983CE
S11313508FEF9FE79E838D83AE01475E5F4F6F895A
S1131360788DCE0101960E94BE09EF81F885E00FC9
S1131370F11F10822E96E4E00C94600CACE0B0E017
S1131380E4ECF9E00C94360C7C016B018A01FC015D
S113139017821682838181FFBDC1CE0101964C0163
S11313A0F7019381F60193FD859193FF81916F017C
S11313B0882309F4ABC1853239F493FD859193FFF9
S11313C081916F01853229F4B70190E00E94A60B48
S11313D0E7CF512C312C20E02032A0F48B3269F07D
S11313E030F4803259F0833269F420612CC08D329C
S11313F039F0803339F4216026C02260246023C090
S1131400286021C027FD27C030ED380F3A3078F42A
S113141026FF06C0FAE05F9E300D1124532E13C040
S11314208AE0389E300D1124332E20620CC08E3297
S113143021F426FD6BC1206406C08C3611F42068AB
S113144002C0883641F4F60193FD859193FF8191A2
S11314506F018111C1CF982F9F7D9554933028F44B
S11314600C5F1F4FFFE3F9830DC0833631F08337E0
S113147071F0833509F05BC022C0F8018081898353
S11314800E5F1F4F44244394512C540115C038015E
S1131490F2E06F0E711CF801A080B18026FF03C03A
S11314A0652D70E002C06FEF7FEFC5012C870E94AD
S11314B09B0B2C0183012C852F77222E17C038011A
S11314C0F2E06F0E711CF801A080B18026FF03C00A
S11314D0652D70E002C06FEF7FEFC5012C870E947D
S11314E0900B2C012C852068222E830123FC1BC029
S11314F0832D90E048165906B0F4B70180E290E0DD
S11315000E94A60B3A94F4CFF50127FC859127FE9F
S113151081915F01B70190E00E94A60B31103A94CB
S1131520F1E04F1A51084114510471F7E5C08436B3
S113153011F0893639F5F80127FF07C06081718100
S1131540828193810C5F1F4F08C06081718188275D
S113155077FD8095982F0E5F1F4F2F76B22E97FF41
S113156009C090958095709561957F4F8F4F9F4FDF
S11315702068B22E2AE030E0A4010E94D80BA82EE5
S1131580A81844C0853729F42F7EB22E2AE030E013
S113159025C0F22FF97FBF2E8F36C1F018F488359D
S11315A079F0B4C0803719F0883721F0AFC02F2FFD
S11315B02061B22EB4FE0DC08B2D8460B82E09C0FC
S11315C024FF0AC09F2F9660B92E06C028E030E0A1
S11315D005C020E130E002C020E132E0F801B7FEAE
S11315E007C060817181828193810C5F1F4F06C0A7
S11315F06081718180E090E00E5F1F4FA4010E9422
S1131600D80BA82EA818FB2DFF77BF2EB6FE0BC053
S11316102B2D2E7FA51450F4B4FE0AC0B2FC08C0D2
S11316202B2D2E7E05C07A2C2B2D03C07A2C01C0C5
S1131630752C24FF0DC0FE01EA0DF11D808180335D
S113164011F4297E09C022FF06C07394739404C068
S1131650822F867809F0739423FD13C020FF06C0FF
S11316605A2C731418F4530C5718732C731468F40D
S1131670B70180E290E02C870E94A60B73942C851E
S1131680F5CF731410F4371801C0312C24FF12C0A5
S1131690B70180E390E02C870E94A60B2C8522FFE3
S11316A017C021FF03C088E590E002C088E790E0FE
S11316B0B7010CC0822F867859F021FD02C080E268
S11316C001C08BE227FD8DE2B70190E00E94A60BDA
S11316D0A51438F4B70180E390E00E94A60B5A9455
S11316E0F7CFAA94F401EA0DF11D8081B70190E0CF
S11316F00E94A60BA110F5CF332009F451CEB701F7
S113170080E290E00E94A60B3A94F6CFF70186811E
S1131710978102C08FEF9FEF2C96E2E10C94520C5C
S1131720FC010590615070400110D8F780959095A8
S11317308E0F9F1F0895FC016150704001900110AD
S1131740D8F7809590958E0F9F1F08950F931F9340
S1131750CF93DF93182F092FEB018B8181FD03C0F9
S11317608FEF9FEF20C082FF10C04E815F812C81DC
S11317703D81421753077CF4E881F9819F012F5F73
S11317803F4F39832883108306C0E885F985812F6C
S11317900995892B29F72E813F812F5F3F4F3F8386
S11317A02E83812F902FDF91CF911F910F91089558
S11317B0FA01AA27283051F1203181F1E8946F937E
S11317C06E7F6E5F7F4F8F4F9F4FAF4FB1E03ED024
S11317D0B4E03CD0670F781F891F9A1FA11D680FC2
S11317E0791F8A1F911DA11D6A0F711D811D911DF5
S11317F0A11D20D009F468943F912AE0269F11246A
S11318003019305D3193DEF6CF010895462F4770CD
S1131810405D4193B3E00FD0C9F7F6CF462F4F7028
S1131820405D4A3318F0495D31FD4052419302D086
S1131830A9F7EACFB4E0A69597958795779567952C
S1131840BA95C9F700976105710508959B01AC012C
S11318500A2E06945795479537952795BA95C9F753
S1131860620F731F841F951FA01D08952F923F922E
S11318704F925F926F927F928F929F92AF92BF929C
S1131880CF92DF92EF92FF920F931F93CF93DF9348
S1131890CDB7DEB7CA1BDB0B0FB6F894DEBF0FBEA5
S11318A0CDBF09942A88398848885F846E847D84F2
S11318B08C849B84AA84B984C884DF80EE80FD80F4
S11318C00C811B81AA81B981CE0FD11D0FB6F8946A
S11118D0DEBF0FBECDBFED010895F894FFCF2B
S11318DE4570726F6D20496E69740D0A00737461E0
S11318EE72742D757020556172740D0A004D43503B
S11318FE3235313520496E6974206661696C7572B2
S113190E650D0A0073657269616C3A25642025645D
S113191E202564202564202564202564200D0A00DA
S113192E43616E20526571756573742043616E490F
S113193E440D0A0000000000F20071005365726944
S113194E616C206E6F74206F6B0043616E4964206E
S113195E61636365707465640D0A0025642D2564E6
S113196E0D0A0025642000646174610D0A004E4D59
S113197E54636F6E74726F6C31004572726F7220A5
S113198E43530D0A004572726F72436F6E6469742D
S113199E696F6E20666F756E6400416E6F6C6F6F4B
S11319AE6720696E7075740053656E64546F4D6272
S10B19BE65643A25640D0A007A
S9030000FC
