:100000000C9447000C94E4060C946F000C946F0061
:100010000C9421070C946F000C946F000C946F00EB
:100020000C946F000C946F000C946F000C946F0094
:100030000C946F000C94C6070C946F000C946F0026
:100040000C946F000C946F000C946F000C946F0074
:100050000C946F000C946F000C946F000C946F0064
:100060000C946F000C946F00AF02DB02DF0273028E
:1000700077027B027F02830287028B028F02930248
:1000800097029B029F02A302A702AB020202112465
:100090001FBECFEFD8E0DEBFCDBF11E0A0E0B1E0E2
:1000A000ECE4F6E102C005900D92A83EB107D9F745
:1000B00022E0A8EEB1E001C01D92A637B207E1F739
:1000C00010E0CEE8D0E004C02297FE010E944F0865
:1000D000CC38D107C9F70E945C010C94240B0C9416
:1000E0000000FC018281938180FD15C0228533854B
:1000F000DF01A20FB31F1C964C9150E05595479518
:10010000672B11F060E801C060E0DF01A20FB31FB0
:10011000462B1C964C9301969383828395958795E5
:1001200095958795959587959595879593878287DA
:10013000809758F0178216821386128615821482D1
:100140001382128211861086089582E090E09187D2
:1001500080870895CF93DF93EC01CB01885C9109F0
:10016000883E934008F04BC021E06C3B72400CF499
:1001700020E0888599858130910569F1823091056B
:10018000A9F0892B99F5222331F08E819F81019668
:100190009F838E832BC08E819F8180979CF11F82CD
:1001A0001E8281E090E09987888720C0211105C0D8
:1001B00081E090E09987888719C06E817F8121E076
:1001C00062277F836E83E881F9810280F381E02DCD
:1001D000CE0109950BC0211118C0E881F9816E810B
:1001E0007F810280F381E02DCE01099581E090E0CE
:1001F0002A813B81203A310551F080E008C08FEF21
:100200009FEF05C08FEF9FEF02C08FEF9FEFDF9151
:10021000CF9108952A9A229A8FE39CE90197F1F7EA
:1002200000C000002A985C98549A5F9A579A3998AF
:100230003A983B983C98419A429A439A449A089536
:1002400083E291E09093270280932602E8E2F2E0B5
:100250008081807E846080838BEA809329028DEC8C
:1002600080932A0240E460EE8FE00E94440286E21E
:1002700092E00E94A9038FE39CE90197F1F700C087
:1002800000000E941F03882371F086E292E00E9422
:100290002603882321F081E00E94330507C084E013
:1002A0000E94330503C086E00E94330540E060EE03
:1002B0008FE00E9444020895A89514BEE0E6F0E0A5
:1002C00080818861808310820E940A010E944E050D
:1002D00080E00E94850583E390E00E948B058DE01D
:1002E00091E00E949E050E94E802811108C08DE104
:1002F00091E00E949E0586E00E94330503C081E0E4
:100300000E9433058FE78093E90181E18093E80142
:100310000E947C04809137021F928F938091360255
:100320001F928F93C5E3D2E088811F928F9304E3DD
:1003300012E0F80180811F928F930F2EF3E3EF2ECE
:10034000F2E0FF2EF02DF70180811F928F930F2E88
:10035000F2E3CF2EF2E0DF2EF02DF60180811F9226
:100360008F9384E391E09F938F938AEE91E09F9324
:100370008F930E94530881E0F601808382E0F701A9
:10038000808383E0F801808384E088838AEE91E0B3
:100390000E949E050E942001FFEF23EC89E0F150AE
:1003A00020408040E1F700C0000080E894E00E9417
:1003B000FE0480E591E00E949E058EE180936C0032
:1003C00082E08093680029E288E190E00FB6F8941B
:1003D000A895809360000FBE20936000789483B747
:1003E000817F83BF83B7816083BF889583B78E7F0A
:1003F00083BFEDB7FEB770960FB6F894FEBF0FBE81
:10040000EDBFFFCF1092400210923F0210924402C3
:100410001092430210923E0210923D0210923C0252
:1004200010923B02109242021092410288E691E043
:1004300090933A028093390208958EBD0DB407FE61
:10044000FDCF8EB50895CF93DF93D82FC62F29986F
:1004500082E00E941D028D2F0E941D028C2F0E949F
:100460001D02299ADF91CF910895CF93C82F299823
:1004700083E00E941D028C2F0E941D028FEF0E94BC
:100480001D02299ACF9108951F93CF93DF93182FC0
:10049000D62FC42F299885E00E941D02812F0E942B
:1004A0001D028D2F0E941D028C2F0E941D02299A71
:1004B000DF91CF911F91089529980E941D028FEF1F
:1004C0000E941D02299A08950F931F93CF93DF93E3
:1004D00090E0FC013197E231F10508F06AC0EC5C74
:1004E000FF4F0C944D0817E0DAEBCFE03BC015E866
:1004F000D1EFCFE037C017E0DEEBC9E033C017E83B
:10050000DFEFC7E02FC017E8DAEFC7E02BC017E82E
:10051000DFEFC3E027C017E0DEEBC3E023C017E046
:10052000DDEAC3E01FC017E8DAEFC3E01BC016E83E
:10053000D0EFC3E017C017E8DAEFC1E013C015E849
:10054000D1EFC1E40FC016E8D0EFC0E00BC014E05B
:10055000D0EAC0E007C012E8D0EDC0E003C017E861
:10056000DFEFCFE36C2F8AE20E9423026D2F89E236
:100570000E942302612F88E20E9423028AE20E94E5
:10058000350201E08C1301C000E089E20E943502CF
:1005900091E08D1301C090E0092388E20E943502AA
:1005A00091E0811301C090E0902321E0892F822700
:1005B0000AC080E008C017E8DFEFCFE1D3CF17E82B
:1005C000DFEFCFE0CFCFDF91CF911F910F91089553
:1005D000299A219A2D982B982C98259A239A249819
:1005E00052985A9A81E58CBD1DBC299880EC0E94D6
:1005F0001D02299A85E38A95F1F700008EE00E949A
:1006000064028823D1F063E08BE20E94230260E061
:100610008CE00E94230260E08DE00E94230260E6ED
:1006200080E60E94230260E680E70E94230260E0E9
:100630008FE00E94230281E0089580E0089589B14F
:1006400082FB882780F991E089270895EF92FF9235
:100650000F931F93CF93DF931F92CDB7DEB77C012B
:1006600080EB0E945C028983898186FD06C08981B6
:1006700088230CF065C084E901C080E929980E94B4
:100680001D028FEF0E941D0228E0829FC0011124ED
:10069000F701918380838FEF0E941D0290E0959572
:1006A0008795959587959595879595958795959532
:1006B0008795F70120813181822B932B9183808351
:1006C0008FEF0E941D028FEF0E941D028FEF0E948C
:1006D0001D028F70282F220FF7019281917E922B9D
:1006E0009283298123FB222720F9219520FB90F971
:1006F0009283882391F087010D5F1F4FF4E0EF0E86
:10070000F11C8150E80EF11C8FEF0E941D02F801D0
:1007100081938F01EE15FF05B9F7299A898186FF2C
:1007200006C040E061E08CE20E94440205C040E067
:1007300062E08CE20E944402898187708F5F01C071
:1007400080E00F90DF91CF911F910F91FF90EF907C
:100750000895DF92EF92FF920F931F93CF93DF9351
:100760001F92CDB7DEB78C0180EA0E945C028983BC
:10077000898182FF0AC0898184FF09C0898186FD41
:1007800056C06894DD24D2F805C0D12C03C068940B
:10079000DD24D1F829988D2D80640E941D02F80176
:1007A00020813181C9019695879596958795969573
:1007B00087950E941D02F80180818295880F807EB6
:1007C0000E941D0280E00E941D0280E00E941D0226
:1007D000F8018281E82EE694FE2DFF70EF2E80FF57
:1007E00005C08F2F80640E941D0210C08F2F0E94B1
:1007F0001D02EE2059F00D5F1F4FF12CF801819181
:100800008F010E941D02F394FE14C0F3299AF5E0B3
:10081000FA95F1F700002998D11002C0DD24D39495
:100820008D2D80680E941D02299A8D2D01C080E0C7
:100830000F90DF91CF911F910F91FF90EF90DF907C
:10084000089545983D9A8FE797E00197F1F700C02A
:1008500000003D98EFEEF0E03197F1F700C00000A6
:1008600086B1EFE8F6E03197F1F700C00000807242
:10087000089545983D9A95E09A95F1F70000811109
:100880003D988FEE90E00197F1F700C000003D9891
:10089000089545983D9A85E08A95F1F700003D98C6
:1008A0009AE49A95F1F700C086B190EF9A95F1F726
:1008B00085FB882780F90895CF93DF93C8E0D0E0C7
:1008C0000E94490420E8829FC0011124D695D82BAC
:1008D000C150B1F78D2FDF91CF910895CF93DF9362
:1008E000D82FC8E08D2F81700E943904D695C15051
:1008F000C9F7DF91CF9108950F931F93CF93DF93A3
:100900000E94210483E30E946E0409E312E0C1E324
:10091000D2E00E945C048993C017D107D1F780917F
:1009200031028832C9F528E332E0E1E3F2E040E049
:10093000B8E0ACE861915B2F762F7427842F90E0AC
:1009400095958795482F70FF02C04A2F48276695D6
:10095000515091F7E217F30769F781E0909138025F
:10096000491380E08823D1F09091330280913202C4
:10097000982B80913402982B80913502982B80918E
:100980003602982B80913702982B81E009F480E0A1
:10099000882321F081E003C08FEF01C08FEFDF914A
:1009A000CF911F910F910895FC0184818823D1F08C
:1009B00082819381009719F4148281E00895209137
:1009C000740230917502408151814217530761F0E2
:1009D00001979383828331832083892B39F4148296
:1009E00081E0089581E0089580E0089580E0089511
:1009F0004F9B02C05F9808955F9A0895CF93DF934D
:100A0000EC010E94F80429B18091E901C82BD09330
:100A10002702C0932602E8E2F2E08081807E8C60AB
:100A2000808388B190E0959587958093290224FB77
:100A3000882780F980932A028091320280932B02CA
:100A40008091330280932C028091340280932D0296
:100A50008091350280932E0286E292E00E94A903E3
:100A6000DF91CF9108958823C1F090E05F9A2FEF36
:100A700031EE44E0215030404040E1F700C000003A
:100A80005F982FEF31EE44E0215030404040E1F7D5
:100A900000C000009F5F9813E9CF08951092800076
:100AA00085E08093810021E020936F0085EE99EF2F
:100AB00090938500809384001092750210927402C6
:100AC0002093730280E797E1909372028093710202
:100AD0001092700210926F0220936E028CE390E0ED
:100AE00090936D0280936C0210926B0210926A02D6
:100AF000209369028EE190E09093680280936702F0
:100B000010926602109265020895811102C0E89A5F
:100B10000895E99A08959093C5008093C40088E1F0
:100B20008093C1008EE08093C2000895E0ECF0E075
:100B3000908195FFFDCF8093C6000895CF93DF93FA
:100B4000EC018881882331F021960E9496058991D5
:100B50008111FBCFDF91CF9108958091E801813120
:100B600081F590912A0280913202981312C09091DF
:100B70002B028091330298130CC090912C0280912B
:100B80003402981306C090912D0280913502981777
:100B900029F08CE691E00E949E050895809126023E
:100BA0008F778093E9018091290280FF02C05C9ACF
:100BB00001C05C9885E08093E8018AE791E00E949B
:100BC0009E050895CF92DF92EF92FF920F931F93AD
:100BD000CF93DF938091E9011F928F93C6E2D2E019
:100BE00089818F9388818F938BE891E09F938F9376
:100BF0008AEE91E09F938F930E9453088AEE91E0D2
:100C00000E949E058DB79EB708960FB6F8949EBFBA
:100C10000FBE8DBF8881998180789770811595402E
:100C200021F40E94F8040E94AD0580912602909163
:100C300027026091E901AC014F775527262F30E05C
:100C40004217530709F03FC00E94F8048091260222
:100C500090912702807897708115924009F06AC0C0
:100C600009E212E00F2EF1E3CF2EF2E0DF2EF02D9D
:100C70000F2EF3E9EF2EF1E0FF2EF02DCAEED1E0BA
:100C8000F80181918F011F928F93FF92EF92DF9372
:100C9000CF930E945308CE010E949E050F900F90A3
:100CA0000F900F900F900F900C151D0549F787E9D5
:100CB00091E00E949E058091290280FF02C05C9A0B
:100CC00039C05C9837C040912A0231E0411130E0D0
:100CD00021E0641320E0232B69F121E0892B09F046
:100CE00020E0222339F10E94F8048EE991E00E946D
:100CF0009E05809129028038E9F020F481508230ED
:100D0000A8F418C0813819F0823869F00FC028E0C3
:100D100088E190E00FB6F894A895809360000FBE2C
:100D200020936000FFCF0E94E80204C08AEA91E0AD
:100D30000E949E05DF91CF911F910F91FF90EF9040
:100D4000DF90CF900895CF93C82F40E060E88CE209
:100D50000E94440240E060E28CE20E944402209142
:100D6000E90130E0206835603093270220932602A5
:100D7000E8E2F2E08081807E84608083C093290273
:100D80008DE20E94350280932A0286E292E00E9460
:100D9000A90340E060E88CE20E94440240E060E287
:100DA0008CE20E94440285EB91E00E949E050E9425
:100DB000E8022FE783E79CE0215080409040E1F774
:100DC00000C00000CF9108951F920F920FB60F92AE
:100DD00011242F933F934F935F936F937F938F9340
:100DE0009F93AF93BF93CF93EF93FF938CE20E94B7
:100DF0003502C82F88231CF481E00E94A306C5FF9A
:100E000003C082E00E94A3060E941F03882339F0DA
:100E100086E292E00E94260381110E94E205FF9182
:100E2000EF91CF91BF91AF919F918F917F916F91F2
:100E30005F914F913F912F910F900FBE0F901F9098
:100E400018951F920F920FB60F9211242F933F9374
:100E50004F935F936F937F938F939F93AF93BF93C2
:100E6000EF93FF9386B14C9902C081FD5C9A86B1E5
:100E70004C9B02C081FF5C988AEC91E00E949E0529
:100E800080E891E00E94FE04FF91EF91BF91AF9145
:100E90009F918F917F916F915F914F913F912F9192
:100EA0000F900FBE0F901F90189580E480937C00E8
:100EB00084E880937A0081E080937E008FE39CE950
:100EC0000197F1F700C00000EAE7F0E0808180645C
:100ED0008083808186FDFDCF80917800909179009C
:100EE00010927A00937008950F931F93CF93DF931E
:100EF000D82F9091E801913109F443C00E94550721
:100F0000082F192F0E94F804C9B1C295C1701F9211
:100F1000CF9328ED31E03F932F932AEE31E03F93BA
:100F20002F930E9453088AEE91E00E949E05209123
:100F3000E90130E037603093270220932602E8E28F
:100F4000F2E08081807E8C608083D0932902C09300
:100F50002A0200932B0210932C028CE10E9435028E
:100F600080932D028DE10E94350280932E0286E24D
:100F700092E00E94A9030F900F900F900F900F9096
:100F80000F90DF91CF911F910F9108951F920F92B3
:100F90000FB60F9211242F933F934F935F936F934C
:100FA0007F938F939F93AF93BF93EF93FF9385EEC0
:100FB00099EF9093850080938400809174029091C2
:100FC0007502019690937502809374028FE692E009
:100FD0000E94D4048823A9F081E08093730280E703
:100FE00097E19093720280937102809174029091C4
:100FF00075029093700280936F028091E8010E94C5
:1010000074078AE692E00E94D404882391F081E07C
:1010100080936E028CE390E090936D0280936C025B
:10102000809174029091750290936B0280936A0292
:10103000A89585E692E00E94D4048823E9F0809187
:10104000E8018131C9F480E894E00E94FE0481E067
:10105000809369028EE190E090936802809367022A
:10106000809174029091750290936602809365025C
:1010700080E591E00E949E05FF91EF91BF91AF91B5
:101080009F918F917F916F915F914F913F912F91A0
:101090000F900FBE0F901F901895EE0FFF1F059039
:1010A000F491E02D0994AEE0B0E0E9E5F8E00C94AD
:1010B000FB0A0D891E8986E08C831A8309838FEFD2
:1010C0009FE79E838D83AE01475E5F4F6F89788D6A
:1010D000CE0101960E947508EF81F885E00FF11F9F
:1010E00010822E96E4E00C94170BACE0B0E0EBE736
:1010F000F8E00C94ED0A7C016B018A01FC01178277
:101100001682838181FFBDC1CE0101964C01F7019A
:101110009381F60193FD859193FF81916F0188235F
:1011200009F4ABC1853239F493FD859193FF819128
:101130006F01853229F4B70190E00E945D0AE7CF84
:10114000512C312C20E02032A0F48B3269F030F4A5
:10115000803259F0833269F420612CC08D3239F02D
:10116000803339F4216026C02260246023C02860C7
:1011700021C027FD27C030ED380F3A3078F426FF24
:1011800006C0FAE05F9E300D1124532E13C08AE092
:10119000389E300D1124332E20620CC08E3221F483
:1011A00026FD6BC1206406C08C3611F4206802C095
:1011B000883641F4F60193FD859193FF81916F018B
:1011C0008111C1CF982F9F7D9554933028F40C5FE7
:1011D0001F4FFFE3F9830DC0833631F0833771F081
:1011E000833509F05BC022C0F801808189830E5FDE
:1011F0001F4F44244394512C540115C03801F2E090
:101200006F0E711CF801A080B18026FF03C0652D10
:1012100070E002C06FEF7FEFC5012C870E94520A79
:101220002C0183012C852F77222E17C03801F2E084
:101230006F0E711CF801A080B18026FF03C0652DE0
:1012400070E002C06FEF7FEFC5012C870E94470A54
:101250002C012C852068222E830123FC1BC0832DAA
:1012600090E048165906B0F4B70180E290E00E9481
:101270005D0A3A94F4CFF50127FC859127FE819110
:101280005F01B70190E00E945D0A31103A94F1E0ED
:101290004F1A51084114510471F7E5C0843611F01A
:1012A000893639F5F80127FF07C060817181828195
:1012B00093810C5F1F4F08C060817181882777FD83
:1012C0008095982F0E5F1F4F2F76B22E97FF09C083
:1012D00090958095709561957F4F8F4F9F4F2068B7
:1012E000B22E2AE030E0A4010E948F0AA82EA8188E
:1012F00044C0853729F42F7EB22E2AE030E025C085
:10130000F22FF97FBF2E8F36C1F018F4883579F0AF
:10131000B4C0803719F0883721F0AFC02F2F20617B
:10132000B22EB4FE0DC08B2D8460B82E09C024FFF0
:101330000AC09F2F9660B92E06C028E030E005C095
:1013400020E130E002C020E132E0F801B7FE07C042
:1013500060817181828193810C5F1F4F06C0608123
:10136000718180E090E00E5F1F4FA4010E948F0A00
:10137000A82EA818FB2DFF77BF2EB6FE0BC02B2D75
:101380002E7FA51450F4B4FE0AC0B2FC08C02B2D69
:101390002E7E05C07A2C2B2D03C07A2C01C0752C13
:1013A00024FF0DC0FE01EA0DF11D8081803311F490
:1013B000297E09C022FF06C07394739404C0822F53
:1013C000867809F0739423FD13C020FF06C05A2CC1
:1013D000731418F4530C5718732C731468F4B70172
:1013E00080E290E02C870E945D0A73942C85F5CFF3
:1013F000731410F4371801C0312C24FF12C0B70148
:1014000080E390E02C870E945D0A2C8522FF17C0A4
:1014100021FF03C088E590E002C088E790E0B701B3
:101420000CC0822F867859F021FD02C080E201C0F5
:101430008BE227FD8DE2B70190E00E945D0AA514C2
:1014400038F4B70180E390E00E945D0A5A94F7CF28
:10145000AA94F401EA0DF11D8081B70190E00E9489
:101460005D0AA110F5CF332009F451CEB70180E217
:1014700090E00E945D0A3A94F6CFF7018681978149
:1014800002C08FEF9FEF2C96E2E10C94090BFC0158
:101490000590615070400110D8F7809590958E0F9F
:1014A0009F1F0895FC016150704001900110D8F712
:1014B000809590958E0F9F1F08950F931F93CF9344
:1014C000DF93182F092FEB018B8181FD03C08FEF74
:1014D0009FEF20C082FF10C04E815F812C813D8133
:1014E000421753077CF4E881F9819F012F5F3F4F3A
:1014F00039832883108306C0E885F985812F0995F3
:10150000892B29F72E813F812F5F3F4F3F832E8309
:10151000812F902FDF91CF911F910F910895FA01A4
:10152000AA27283051F1203181F1E8946F936E7F22
:101530006E5F7F4F8F4F9F4FAF4FB1E03ED0B4E013
:101540003CD0670F781F891F9A1FA11D680F791F54
:101550008A1F911DA11D6A0F711D811D911DA11D65
:1015600020D009F468943F912AE0269F1124301975
:10157000305D3193DEF6CF010895462F4770405D10
:101580004193B3E00FD0C9F7F6CF462F4F70405DBF
:101590004A3318F0495D31FD4052419302D0A9F71A
:1015A000EACFB4E0A6959795879577956795BA9514
:1015B000C9F700976105710508959B01AC010A2EDA
:1015C00006945795479537952795BA95C9F7620FB1
:1015D000731F841F951FA01D08952F923F924F9255
:1015E0005F926F927F928F929F92AF92BF92CF92B3
:1015F000DF92EF92FF920F931F93CF93DF93CDB7BC
:10160000DEB7CA1BDB0B0FB6F894DEBF0FBECDBF33
:1016100009942A88398848885F846E847D848C8404
:101620009B84AA84B984C884DF80EE80FD800C810D
:101630001B81AA81B981CE0FD11D0FB6F894DEBFF0
:0C1640000FBECDBFED010895F894FFCF60
:10164C004570726F6D20496E69740D0A0073746178
:10165C0072742D757020556172740D0A004D4350D3
:10166C003235313520496E6974206661696C75724A
:10167C00650D0A0073657269616C3A2564202564F6
:10168C00202564202564202564202564200D0A0073
:10169C0043616E20526571756573742043616E49A8
:1016AC00440D0A0000000000AA0071005365726925
:1016BC00616C206E6F74206F6B0043616E49642007
:1016CC0061636365707465640D0A0025642D25647F
:1016DC000D0A0025642000646174610D0A004E4DF2
:1016EC0054636F6E74726F6C31004572726F72203E
:1016FC0043530D0A004572726F72436F6E646974C6
:10170C00696F6E20666F756E6400416E6F6C6F6FE3
:10171C006720696E7075740053656E64546F4D620A
:08172C0065643A25640D0A0012
:00000001FF
